:100000000C9496130C94C7130C94C7130C94C71339
:100010000C94C7130C94C7130C94C7130C94C713F8
:100020000C94C7130C94C7130C94C7130C94C713E8
:100030000C94C7130C94C7130C94C7130C94C713D8
:100040000C94C7130C9458940C94C7130C94C713B6
:100050000C94C7130C94C7130C9403BB0C94A87C8A
:100060000C94C7130C947D870C94C7130C94C7137E
:100070000C94C7130C94C7130C94C7130C94C71398
:100080000C94C7130C94C7130C94C7130C94C71388
:100090000C94C7130C94C7130C94C7130C94C71378
:1000A0000C94C7130C94C7130C94C7130C94C71368
:1000B0000C94C7130C94C7130C94C7130C94C71358
:1000C0000C94C7130C94C7130C94C7130C94A787F4
:1000D0000C94C7130C94C7130C94C7130C94C71338
:1000E0000C94C71385336F374D3BCF3E223E433EC2
:1000F000783DCD3DCF3ECF3ECF3ECF3ECF3ECF3EF3
:10010000CF3ECF3E643E6D3E763E843E883ECF3E3F
:10011000CF3ECF3ECF3ECF3ECF3ECF3ECF3ECF3E77
:10012000CF3ECF3E8C3E92339B339F33A533AF33CC
:10013000B933C333CF3ED733CF3ECF3E7D35923533
:100140009835C235DA35CF3ECF3ECF3EF735FD3557
:100150003036CF3E5F36683671367A3683368C3627
:1001600095369E36A736B036B936C236CB36D3363C
:10017000DB36E336EB36F336FB3603370B37133714
:100180001B372337CF3ECF3E2B37CD333637413762
:10019000CF3E4B375C37CF3ECF3ECF3ECF3EEE33E8
:1001A000CF3E06341E34273431343B3445344F348B
:1001B00059346334CF3E7E34883492349C34A63430
:1001C000B034BA34C434CF3EC634D034DA34E43434
:1001D000EE34F83402350C35CF3ECF3ECF3ECF3E25
:1001E000CF3ECF3E0E35E33380378C378C37CF3957
:1001F000CF39CF39CF39CF39CF39CF39CF39CF39BF
:10020000CF39CF39CF39CF39CF39CF39CF39CF39AE
:10021000CF39CF39CF39CF39CF39CF39CF39CF399E
:10022000CF39CF39CF39CF39C037CF37DE37FF3766
:100230003C38CD386239CF3971399B39B239783889
:10024000A738A87AAB7A9A7A9E7AA47AE27AAF7AB9
:10025000B37AB97ABD7AC17AC77ACB7ACF7AE27AA1
:10026000D57AD97ADD7AC47BC97BCE7BD87BE27B19
:100270005B7CEC7BF47BFC7B067C107C1A7C297C11
:10028000337C5B7C3D7C477C517C084AD73B3BCE32
:10029000016E84BCBFFDC12F3D6C74319ABD568385
:1002A0003DDA3D00C77F11BED9E4BB4C3E916BAA3D
:1002B000AABE000000803F05A84CCDB2D44EB9388C
:1002C00036A9020C50B9918688083CA6AAAA2ABE73
:1002D000000000803F004E414E494E495459494E5E
:1002E00046CDCCCC3D0AD7233C17B7D13877CC2BA1
:1002F000329595E6241FB14F0A000020410000C846
:100300004200401C4620BCBE4CCA1B0E5AAEC59DC6
:100310007400407A10F35A00A0724E18090010A51C
:10032000D4E80000E87648170000E40B540200000F
:10033000CA9A3B000000E1F5050000809698000095
:100340000040420F000000A08601000000102700BE
:10035000000000E803000000006400000000000A44
:1003600000000000000100000000002C76D888DCAE
:10037000674F0823DFC1DFAE59E1B1B796E5E3E48B
:1003800053C63AE651997696E8E6C28426EB898C04
:100390009B62ED407C6FFCEFBC9C9F40F2BAA56F66
:1003A000A5F490055A2AF75C936B6CF9676DC11B35
:1003B000FCE0E40D47FEF520E6B500D0ED902E03FD
:1003C00000943577050080841E080000204E0A0046
:1003D0000000C80C333333330F986E12831141EF92
:1003E0008D2114893BE65516CFFEE6DB18D1844BF0
:1003F000381BF77C1D901DA4BBE424203284725E60
:10040000228100C9F124ECA1E53D27434F4D4D5514
:100410004E49434154494F4E0044525952554E00A3
:100420004552524F525300494E464F004543484FA4
:100430000047322F47332062616420706172616D22
:1004400065746572730A00205A3A200020593A20D8
:100450000042656420583A20004D65736820706F33
:10046000696E742063616E6E6F74206265207265C0
:10047000736F6C7665640A00286E6F2066696C6520
:1004800029005344207072696E74696E6720627926
:10049000746520004E6F74205344207072696E742E
:1004A000696E670A0043757272656E742066696CC6
:1004B000653A20005072696E742074696D653A2047
:1004C0000000013637263FFFFFFF463C3D380EFF58
:1004D000FFFF272B303A0CFFFFFFFF4AFF0B082CD2
:1004E0002D2EFF1A1C18FFFF2F084505FF424669F5
:1004F0006C616D656E7420757365643A2000537489
:100500006174733A20002C204C6F6E676573742001
:100510006A6F623A2000546F74616C2074696D6573
:100520003A200053746174733A20002C20466169AC
:100530006C65643A20002C2046696E6973686564B6
:100540003A20005072696E74733A200053746174DB
:10055000733A20002C042704200419040B046F664E
:10056000660044454255473A004B494C4C45442EA1
:1005700020004D3131332053006F6B0020573A007B
:1005800020573A00544845524D414C5F50524F5409
:10059000454354494F4E004155544F5245504F52D8
:1005A000545F53445F53544154555300454D455295
:1005B00047454E43595F50415253455200434153C2
:1005C000455F4C494748545F4252494748544E455D
:1005D000535300544F47474C455F4C494748545389
:1005E00000534F4654574152455F504F57455200B4
:1005F0004255494C445F50455243454E54004C458A
:1006000056454C494E475F44415441005A5F505251
:100610004F4245004155544F4C4556454C005052B1
:10062000494E545F4A4F420050524F475245535330
:10063000004155544F5245504F52545F54454D5010
:1006400000564F4C554D4554524943004545505274
:100650004F4D0053455249414C5F584F4E5F584FE4
:100660004646004649524D574152455F4E414D4521
:100670003A4D61726C696E20312E312E3920284737
:1006800069746875622920534F555243455F434F43
:1006900044455F55524C3A68747470733A2F2F6713
:1006A00069746875622E636F6D2F4D61726C696E2F
:1006B0004669726D776172652F4D61726C696E204B
:1006C00050524F544F434F4C5F56455253494F4E33
:1006D0003A312E30204D414348494E455F545950E0
:1006E000453A3344205072696E74657220455854FF
:1006F00052554445525F434F554E543A312055555B
:1007000049443A63656465326132662D3431613241
:100710002D343734382D396231322D633535633617
:10072000326633363766660A0020643A0020693A3A
:100730000020703A00496E76616C696420657874B7
:1007400072756465720A0043290A0061626C65640F
:1007500020286D696E2074656D702000436F6C6495
:10076000206578747275646573206172652000235A
:10077000646566696E652044454641554C545F4B3F
:1007800064200023646566696E65204445464155D2
:100790004C545F4B69200023646566696E65204494
:1007A000454641554C545F4B702000504944204110
:1007B00075746F74756E652066696E6973686564BB
:1007C000212050757420746865206C617374204B0F
:1007D000702C204B6920616E64204B6420636F6E27
:1007E0007374616E74732066726F6D2062656C6FD6
:1007F0007720696E746F20436F6E666967757261EA
:1008000074696F6E2E680A00504944204175746FF8
:1008100074756E65206661696C6564212074696D0C
:10082000656F75740A00453120544845524D414C5E
:100830002052554E4157415900546865726D616CA4
:100840002052756E61776179004531204865617489
:10085000696E67206661696C6564004865617469EA
:100860006E67206661696C6564005049442041757B
:10087000746F74756E65206661696C6564212054BF
:10088000656D706572617475726520746F6F206834
:100890006967680A00204B643A2000204B693A20BF
:1008A00000204B703A20000A20436C617373696327
:1008B00020504944200A002054753A2000204B75EE
:1008C0003A2000206D61783A2000206D696E3A2050
:1008D0000020643A200020626961733A2000504988
:1008E00044204175746F74756E65206661696C652E
:1008F0006421204261642065787472756465722099
:100900006E756D6265720A00504944204175746FBE
:1009100074756E652073746172740A004E6F206383
:10092000617365206C696768740A00426564204CD5
:100930006576656C696E6720004661696C65642048
:10094000746F20656E61626C6520426564204C6541
:1009500076656C696E670A004D65736820706F6913
:100960006E742063616E6E6F7420626520726573B1
:100970006F6C7665640A004D34323120696E636FA6
:10098000727265637420706172616D657465722046
:1009900075736167650A00454550524F4D204F4BB6
:1009A0000A003A200050726F6265205A204F666636
:1009B000736574003F5A206F7574206F66207261F2
:1009C0006E676520282D323020746F203230290A5E
:1009D0000041637469766520457874727564657248
:1009E0003A2000496E76616C69642065787472758E
:1009F0006465720A00534420636172642072656DFD
:100A00006F7665642E005344206361726420696EC2
:100A10007365727465642E004732390047323800BE
:100A20000A202020204C6576656C696E672069730A
:100A300020696E2070726F67726573732E004D3976
:100A40003939206F6B2E0A006C63645F70726568C1
:100A50006561745F6265645F74656D700074656D77
:100A60007043686F696365004732382058302059F9
:100A70003000473238205A30004732382059300091
:100A800047323820583000473238004D3130362058
:100A900050256920532569004D313039205325698F
:100AA000004D31393020532569004D343230205308
:100AB000300A473238205230205820590043616EA6
:100AC0006E6F7420656E74657220737562646972EE
:100AD0003A200066696C652073656C6563743A0042
:100AE000697344697220696E6465783A00726F6F49
:100AF0007420696E6465783A005265667265736841
:100B0000206F6B2E0A00506F7765722D6C6F7373B8
:100B100020636F6E74696E756500506F7765722D16
:100B20006C6F73732063616E63656C00556E6B6EE2
:100B30006F776E2E004D353030004B494C4C45449C
:100B40002E2000202D20496E76616C696420657826
:100B5000747275646572206E756D62657220210A0B
:100B6000004D32342053256C642054256C64004DB4
:100B70003233202573004739322E30205A25732016
:100B8000452573004D34323020532569205A257392
:100B90000047323820523020582059004731205A1F
:100BA00032004739322E30205A30004D3432302056
:100BB0005330205A30002020506C616E6E657242B6
:100BC000756666657242797465733A2000204672D4
:100BD0006565204D656D6F72793A2000436F6D70C9
:100BE000696C65643A204A616E20313220323031BE
:100BF000390A00207C20417574686F723A20286E93
:100C00006F6E652C2064656661756C7420636F6E11
:100C1000666967290A00323031382D30382D30317D
:100C200000204C61737420557064617465643A20CF
:100C300000312E312E390A004D61726C696E002030
:100C4000536F6674776172652052657365740A002C
:100C5000205761746368646F672052657365740A16
:100C6000002042726F776E206F7574205265736535
:100C7000740A002045787465726E616C2052657349
:100C800065740A00506F77657255700A007374615D
:100C900072740A004D3234004D32332025730061E6
:100CA00075746F25692E67006572726F7220777296
:100CB0006974696E6720746F2066696C650A00202C
:100CC0005A3A0020593A0020583A00656E6473740D
:100CD0006F7073206869743A2000446F6E652073EA
:100CE0006176696E672066696C652E0A004D32393F
:100CF000007C3C3E5E2B3D3F2F5B5D3B2C2A225C03
:100D0000004572726F722077726974696E67207421
:100D10006F20454550524F4D210A00454550524FD6
:100D20004D206461746173697A65206572726F72B7
:100D30002E0A0053442063617264206F6B0A006FB7
:100D400070656E526F6F74206661696C65640A002D
:100D5000766F6C756D652E696E6974206661696C5D
:100D600065640A00534420696E6974206661696C89
:100D70000A0057726974696E6720746F2066696C27
:100D8000653A20006F70656E206661696C65642C41
:100D90002046696C653A20006F70656E2066616957
:100DA0006C65642C2046696C653A200046696C6568
:100DB0002073656C65637465640A002053697A6505
:100DC0003A200046696C65206F70656E65643A2054
:100DD000002066696C653A2000646F696E67006682
:100DE00072657368004E6F772000454E442053555E
:100DF00042524F5554494E450A002220706F7300ED
:100E00002220706172656E743A2200535542524F2F
:100E10005554494E452043414C4C207461726765DE
:100E2000743A22004B494C4C45442E200074727990
:100E3000696E6720746F2063616C6C207375622D1E
:100E400067636F64652066696C6573207769746891
:100E500020746F6F206D616E79206C6576656C73A0
:100E60002E204D4158206C6576656C2069733A00E0
:100E700043616E6E6F74206F70656E20737562646F
:100E8000697220006563686F3A0020746F6F206C90
:100E90006F6E6720657874727573696F6E207072FB
:100EA0006576656E7465640A0020636F6C64206506
:100EB0007874727573696F6E2070726576656E7482
:100EC00065640A00290A002062797465733B206317
:100ED0007263200053657474696E67732053746F76
:100EE000726564202800290A002062797465733BCA
:100EF0002063726320002073746F726564207365D1
:100F00007474696E6773207265747269657665645E
:100F1000202800202863616C63756C617465642906
:100F2000210A0020213D2000454550524F4D2043CD
:100F30005243206D69736D61746368202D2028739E
:100F4000746F7265642920002053697A653A200025
:100F5000496E6465783A2000204D61726C696E3D7F
:100F6000563535290A0028454550524F4D3D00451C
:100F70004550524F4D2076657273696F6E206D69D2
:100F8000736D61746368200048617264636F6465A7
:100F9000642044656661756C742053657474696E71
:100FA0006773204C6F616465640A00B80B0000B879
:100FB0000B000064000000102700000000964300B2
:100FC0000096430000A0400000C8410000C8420055
:100FD00000C8420000C8430000BA423A0A00202874
:100FE0006D6D290020204D36303320002055004CF7
:100FF0000046696C616D656E74206C6F61642F755D
:101000006E6C6F6164206C656E677468733A0A0079
:1010100020204D383531205A005A2D50726F6265AC
:10102000204F66667365740020440020490020202C
:101030004D33303120500050494420736574746939
:101040006E67733A0A0020460020420020480020C4
:10105000204D3134352053004D6174657269616CE7
:101060002068656174757020706172616D6574656A
:1010700072733A0A00205A00204A00202047323971
:10108000205720490020204D343230205300417534
:10109000746F20426564204C6576656C696E673AB2
:1010A0000A00205A0020590020204D3230362058A6
:1010B00000486F6D65206F66667365743A0A00209C
:1010C0004500205A00205900205800205400205389
:1010D0000020204D32303520420020453C6D6178A3
:1010E0005F655F6A65726B3E0020583C6D61785F9A
:1010F000785F6A65726B3E20593C6D61785F795FFD
:101100006A65726B3E205A3C6D61785F7A5F6A65F2
:10111000726B3E00416476616E6365643A20423CC6
:101120006D696E5F7365676D656E745F74696D651B
:101130005F75733E20533C6D696E5F6665656472D2
:101140006174653E20543C6D696E5F7472617665B2
:101150006C5F66656564726174653E0020540020B2
:10116000520020204D323034205000416363656CC2
:1011700065726174696F6E2028756E6974732F7360
:1011800032293A20503C7072696E745F6163636506
:101190006C3E20523C726574726163745F6163637C
:1011A000656C3E20543C74726176656C5F6163636C
:1011B000656C3E0A00204500205A0020590020207E
:1011C0004D3230312058004D6178696D756D204188
:1011D0006363656C65726174696F6E2028756E69F2
:1011E00074732F7332293A0A00204500205A0020D8
:1011F000590020204D3230332058004D6178696D00
:10120000756D206665656472617465732028756EFE
:101210006974732F73293A0A00204500205A002070
:10122000590020204D3932205800537465707320C6
:1012300070657220756E69743A0A0020204D323054
:10124000302044300A0020204D323030204400202D
:1012500044697361626C65640A0046696C616D651E
:101260006E742073657474696E67733A0020204D44
:101270003134392043203B20556E69747320696EE8
:101280002043656C736975730A0020204732312052
:101290002020203B0066696C616D656E743A200009
:1012A0007A5F6D696E3A2000795F6D696E3A200051
:1012B000785F6D696E3A20005265706F7274696E66
:1012C0006720656E6473746F7020737461747573D6
:1012D0000A004D353030000000484200004842000E
:1012E000008040000000004578747275646500520B
:1012F0006573756D650000002100240027002A0039
:101300002D003000330001010000040107010A0133
:1013100000002200250028002B002E0031003400A0
:1013200002010000050108010B010000200023005C
:10133000260029002C002F003200000100000301CC
:101340000601090105050505070508080808020248
:1013500002020A0A0808040404040101010101014F
:1013600001010303030303030303040707070C0C32
:101370000C0C0C0C0C0C02020202060606060606F9
:1013800006060B0B0B0B0B0B0B0B07070A0A0A0AC3
:101390000A0A0505050404040808010210202008B3
:1013A00008102040102040800201020108040201C0
:1013B000010204081020408080402010080402012F
:1013C0008004020180402010080402010804020188
:1013D000010204081020408001020408102040800F
:1013E0001008040880102040044080102040048031
:1013F00000000A0B02090C0D0E080703040100008F
:1014000000000000000000000000000000000000DC
:101410000000000000000000000000001211100099
:1014200000000000000000000000000000000000BC
:1014300000000000000000000000000000000000AC
:101440000000000000002569730025696D202569F2
:1014500073002569682025696D2025697300256959
:1014600064202569682025696D2025697300256938
:101470007920256964202569682025696D20256902
:101480007300205400205200416363656C657261F3
:1014900074696F6E3A2050005741524E494E4721B1
:1014A000204C6F77205A204A65726B206D6179203D
:1014B0006C65616420746F20756E77616E7465640D
:1014C000207061757365732E0A00205A0020590040
:1014D000580020204D61783A2000205A0020590001
:1014E000580020204D696E3A20004F6E20004F6654
:1014F0006600536F667420656E6473746F70733A20
:10150000200020466C6F773A2000546F6F20666190
:10151000722066726F6D207265666572656E6365B6
:1015200020706F696E740A000A20202020576169BC
:101530007420666F722066696C616D656E742075CB
:101540006E6C6F61640020202020205461726765FA
:10155000742074656D706572747572650A20202040
:101560002020546F6F206C6F7720666F720A2020E6
:1015700020202066696C616D656E7420756E6C6FDD
:101580006164000A20546F6F20636F6C6420666F83
:10159000722066696C616D656E74206F7065726132
:1015A00074696F6E00486F74656E6420746F6F208D
:1015B000636F6C640A00496E736572742066696CAF
:1015C000616D656E7420616E642070726573732046
:1015D000627574746F6E0A000A202020202020207B
:1015E000496E736572742066696C616D656E7420F6
:1015F000616E640A2020202070726573732062750A
:1016000074746F6E20746F20636F6E74696E75658D
:101610002E2E2E00507265737320627574746F6E77
:1016200020746F2068656174206E6F7A7A6C650A29
:10163000000A20202020546865206E6F7A7A6C653D
:101640002068617320636F6F6C20646F776E200A6F
:10165000707265737320627574746F6E20746F207E
:1016600072656865617420746865206E6F7A7A6C43
:10167000652E00496E736572742066696C616D65D4
:101680006E7420616E64207072657373206275746D
:10169000746F6E20286F72204D313038290A000A8D
:1016A00020202020202020496E73657274206669F6
:1016B0006C616D656E7420616E640A20202020705C
:1016C0007265737320627574746F6E20746F20631B
:1016D0006F6E74696E75652E2E2E004348414E471D
:1016E00045204F5054494F4E533A000A20202020A5
:1016F0005761697420666F722066696C616D656EF2
:10170000742070757267652E000A202020205761B2
:10171000697420666F722066696C616D656E7420F5
:101720006C6F61642E00496E736572742066696C1B
:10173000616D656E7420616E6420707265737320D4
:10174000627574746F6E20286F72204D31303829A5
:101750000A00496E736572742066696C616D656E0E
:101760007420616E64207072657373206275747486
:101770006F6E20746F20636F6E74696E75652E2EA8
:101780002E0020202020205461726765742074652B
:101790006D706572747572650A2020202020546F68
:1017A0006F206C6F7720666F720A202020202066E1
:1017B000696C616D656E74206C6F6164000A202035
:1017C000205761697420666F72207072696E742090
:1017D000746F20726573756D652E002020202020A7
:1017E00020202046696C616D656E742072756E6F85
:1017F0007574210A5761697420666F722073746171
:101800007274206F662066696C616D656E7420630A
:1018100068616E67652E0024F4D43050C38E20C2F8
:10182000A24017828B7011127A910D816CD90AA88F
:1018300061E108C7586607615143061E4B5D05C14B
:1018400045A7041A411104093D9803713931034039
:1018500036DB0265339102D4305402802E1D0263C0
:101860002CEE01752AC501B028A001102781018F37
:101870002564012B244B01E0223401AC211F018D92
:10188000200D01801FFC00841EED00971DDF00B8B5
:101890001CD200E61BC600201BBC00641AB200B2BA
:1018A00019A8000A19A0006A189900D117910040E0
:1018B000178B00B516840031167E00B31579003AF7
:1018C000157300C7146F0058146A00EE1366008881
:1018D00013630025135E00C7125B006C12570015DE
:1018E000125400C111510070114F0021114B00D64C
:1018F0001049008D1047004610440002104200C0FD
:101900000F4000800F3E00420F3C00060F3B00CB13
:101910000E3800930E37005C0E3500270E3400F3AE
:101920000D3200C10D3100900D3000600D2E0032DF
:101930000D2D00050D2C00D90C2B00AE0C290085B7
:101940000C29005C0C2700350C27000E0C2600E843
:101950000B2400C40B2400A00B23007D0B23005A92
:101960000B2100390B2100180B2000F80A1F00D9A9
:101970000A1E00BB0A1E009D0A1D00800A1D00638E
:101980000A1C00470A1B002C0A1B00110A1A00F748
:10199000091A00DD091900C4091900AB09190092E0
:1019A0000917007B091800630917004C0916003657
:1019B000091600200916000A091500F5081500E0AF
:1019C000081400CC081400B8081400A408140090EF
:1019D0000813007D0812006B081300580812004617
:1019E0000812003408110023081100120811000128
:1019F000081100F0071000E0071000D0071000C029
:101A0000071000B0070F00A107100091070E008318
:101A1000070F0074070F0065070E0057070E0049F7
:101A2000070E003B070D002E070E0020070D0013C8
:101A3000070D0006070D00F9060C00ED060D00E08D
:101A4000060C00D4060C00C8060C00BC060C00B046
:101A5000060C00A4060B0099060C008D060B0082F4
:101A6000060B0077060B006C060B0061060A005798
:101A7000060B004C060A0042060A0038060A002E31
:101A8000060A0024060A001A060A001006090007C2
:101A9000060A00FD050900F4050900EB050900E24E
:101AA000050900D9050900D0050900C7050900BED0
:101AB000050900B5050800AD050800A50509009C4D
:101AC000050800940508008C050800840508007CC2
:101AD000050800740508006C050700650508005D31
:101AE000050700560508004E05070047050700409A
:101AF00005080038050700310507002A05070023FF
:101B00000507001C050600160507000F050700085D
:101B100005060002050700FB040600F5040700EEB9
:101B2000040600E8040600E2040700DB040600D512
:101B3000040600CF040600C9040600C3040600BD65
:101B4000040600B7040600B1040500AC040600A6B4
:101B5000040600A00405009B0406009504050090FF
:101B60000406008A04050085040500800406007A46
:101B700004050075040500700405006B040500668B
:101B8000040500610405005C0405005704050052CB
:101B90000405004D04050048040500430405003E0B
:101BA0000404003A04050035040500300404002C48
:101BB00004050027040400230405001E0404001A81
:101BC00004040016040500110404000D04040009B7
:101BD0000405000404040000040400FC030400F8ED
:101BE000030400F4030400F0030400EC030400E821
:101BF000030400E4030400E0030400DC030400D851
:101C0000030400D4030400D0030400CC030400C880
:101C1000030300C503030024F404D9201BC40C5C97
:101C20000E9804C4095F0265077101F405F900FB11
:101C300004B30048048700C103690058035500033A
:101C4000034500BE023A008402310053022A0029F3
:101C500002250004022000E4011C00C8011900AFA5
:101C60000117009801140084011300710110006134
:101C700001100051010E0043010D0036010B002B35
:101C8000010B0020010B00150109000C01090003E4
:101C9000010800FB000800F3000800EB000700E467
:101CA000000600DE000600D8000600D2000600CCC8
:101CB000000500C7000500C2000500BD000400B912
:101CC000000400B5000400B1000400AD000400A948
:101CD000000400A5000300A20003009F0004009B75
:101CE0000003009800030095000200930003009099
:101CF0000003008D0002008B0003008800020086B4
:101D000000020084000300810002007F0002007DC9
:101D10000002007B000200790002007700010076DB
:101D20000002007400020072000100710002006FE6
:101D30000002006D0001006C0002006A00010069F1
:101D400000020067000100660001006500010064F8
:101D50000002006200010061000100600001005FFC
:101D60000002005D0001005C0001005B0001005A00
:101D70000001005900010058000100570001005601
:101D80000001005500010054000100530000005301
:101D90000001005200010051000100500001004FFD
:101DA0000001004E0000004E0001004D0001004CFB
:101DB0000001004B0000004B0001004A00010049F7
:101DC00000010048000000480001004700010046F3
:101DD00000000046000100450000004500010044ED
:101DE00000010043000000430001004200000042E7
:101DF0000001004100000041000100400001003FDF
:101E00000000003F0001003E0000003E0001003DD8
:101E10000000003D0001003C0000003C0000003CD0
:101E20000001003B0000003B0001003A0000003AC6
:101E300000010039000000390001003800000038BE
:101E400000000038000100370000003700010036B4
:101E500000000036000000360001003500000035AB
:101E600000000035000100340000003400000034A0
:101E70000001003300000033000000330001003295
:101E8000000000320000003200010031000000318B
:101E90000000003100010030000000300000003080
:101EA0000001002F0000002F0000002F0000002F75
:101EB0000001002E0000002E0000002E0001002D69
:101EC0000000002D0000002D0000002D0001002C5E
:101ED0000000002C0000002C0000002C0001002B52
:101EE0000000002B0000002B0000002B0001002A46
:101EF0000000002A0000002A0000002A000100293A
:101F0000000000290000002900000029000000292D
:101F10000001002800000028000000280000002820
:101F20000000002800010027000000270000002713
:101F30000000002700000027000100260000002606
:101F400000000026000000260000002600010025F9
:101F500000000025000000250000002500000025ED
:101F600000000025000100240000002400000024DF
:101F700000000024000000240001002300000023D2
:101F800000000023000000230000002300000023C5
:101F900000000023000100220000002200000022B7
:101FA00000000022000000220000002200010021A9
:101FB000000000210000002100000021000000219D
:101FC000000000210000002100010020000000208E
:101FD0000000002000000020000000200000002081
:101FE00000000020000000200001001F0000001F72
:101FF0000000001F0000001F0000001F0000001F65
:102000000000001F0001001E0000001E0000001E56
:102010000000001E000000043700001E29000051CF
:102020001B00005810000010090000CC04000078CC
:10203000020000410100006265640A002C207379EF
:102040007374656D2073746F7070656421204865CA
:10205000617465725F49443A2000656E71756575FB
:1020600065696E672022004D33310053442072654C
:102070006164206572726F720A00446F6E65207031
:1020800072696E74696E672066696C650A004E6FCE
:1020900020436865636B73756D2077697468206C85
:1020A000696E65206E756D6265722C204C6173746B
:1020B000204C696E653A20004B494C4C45442E201B
:1020C000005072696E7465722073746F707065640D
:1020D0002064756520746F206572726F72732E2094
:1020E00046697820746865206572726F7220616E2F
:1020F0006420757365204D39393920746F207265FD
:1021000073746172742E202854656D7065726174E9
:102110007572652069732072657365742E2053652E
:1021200074206974206166746572207265737461CD
:102130007274696E67290A004E6F20436865636B8D
:1021400073756D2077697468206C696E65206E7593
:102150006D6265722C204C617374204C696E653A17
:102160002000636865636B73756D206D69736D61C5
:102170007463682C204C617374204C696E653A203E
:10218000004C696E65204E756D6265722069732022
:102190006E6F74204C617374204C696E65204E75AF
:1021A0006D6265722B312C204C617374204C696E0A
:1021B000653A20004D3131300020496E76616C69FE
:1021C00064206578747275646572200000000000F8
:1021D00000000000000000000000484300004843E9
:1021E0000000484342696C696E656172204C6576F7
:1021F000656C696E6720477269643A0A00486F6DC2
:10220000696E67206661696C6564002028445259D4
:1022100052554E2900473239204175746F2042656E
:1022200064204C6576656C696E67003F20284C2CF5
:10223000522C462C4229206F7574206F6620626FE5
:10224000756E64732E0A003F2856296572626F739B
:1022500065206C6576656C20697320696D706C61B2
:10226000757369626C652028302D34292E0A00426E
:102270006164205A2076616C75650A004E6F206299
:10228000696C696E65617220677269640A00456EE7
:10229000642066696C65206C6973740A0042656726
:1022A000696E2066696C65206C6973740A005072EF
:1022B0006F7465637465642050696E0A00205A3A31
:1022C0000020593A0020436F756E7420583A002060
:1022D000453A00205A3A0020593A00583A003A004C
:1022E0004361703A002F2F2000526573656E643A87
:1022F00020006F6B0020746F6F206C6F6E6720651D
:102300007874727573696F6E2070726576656E741D
:1023100065640A0020636F6C64206578747275735D
:10232000696F6E2070726576656E7465640A00620E
:102330007573793A2070617573656420666F7220D9
:10234000696E7075740A00627573793A20706175F0
:1023500073656420666F7220757365720A0062751A
:1023600073793A2070726F63657373696E670A00E0
:102370004B494C4C45442E20004B494C4C2063614A
:1023800075736564206279204B494C4C20627574EA
:10239000746F6E2F70696E0A004B494C4C45442E89
:1023A00020004B494C4C2063617573656420627951
:1023B00020746F6F206D75636820696E6163746946
:1023C00076652074696D65202D2063757272656E67
:1023D0007420636F6D6D616E643A20004D3630304D
:1023E000004265642068656174696E672066616992
:1023F0006C65640048656174696E67206661696C2C
:1024000065640045312048656174696E67206661C6
:10241000696C65640048656174696E67206661690E
:102420006C65640070012C0190012701B00122014C
:10243000C0011D01F00118011002130130020E014C
:102440006002090190020401C002FF000003FA00CB
:102450004003F5008003F000D003EB002004E60009
:102460007004E100E004DC004005D700C005D200A4
:102470004006CD00D006C8008007C3003008BE006B
:10248000F008B900C009B400B00AAF00B00BAA0050
:10249000D00CA500000EA000500F9B00C0109600AD
:1024A0005012910000148C00C0158700B0178200F4
:1024B000B0197D00D01B7800001E730040206E0014
:1024C00090226900F024640040275F0090295A00A0
:1024D000E02B5500102E500020304B0010324600EB
:1024E000E033410090353C0010373700703832003F
:1024F000A0392D00B03A2800A03B2300603C1E000C
:10250000103D1900903D1400103E0F00703E0A006F
:10251000C03E0500003F0000403FFBFF803FF6FF4C
:10252000C03FF1FF453120544845524D414C2052A7
:10253000554E415741590042454420544845524D5B
:10254000414C2052554E4157415900546865726DB7
:10255000616C2052756E617761790045312045725A
:10256000723A204D415854454D50004572723A2000
:102570004D415854454D5020424544004D4158541A
:10258000454D502074726967676572656400453116
:10259000204572723A204D494E54454D50004572C7
:1025A000723A204D494E54454D5020424544004D0D
:1025B000494E54454D502074726967676572656471
:1025C000004D383420582059205A204500202F0033
:1025D0002042403A0020403A005072696E746572A1
:1025E0002068616C7465642E206B696C6C282920EE
:1025F00063616C6C6564210A00000020C00000A0CB
:10260000C0000000005761726E696E673A20486F23
:102610006D696E672042756D702044697669736FCD
:1026200072203C20310A000202040000A040000099
:10263000A040000000400000484300004843000064
:102640004843FFFFFF0A202048656174696E6720D8
:102650006E6F7A7A6C652C506C656173652077615A
:1026600069742E2E2E00486F74656E6420746F6F2F
:1026700020636F6C640A004572726F723A0046699B
:102680006C652064656C657465643A0044656C65CE
:1026900074696F6E206661696C65642C2046696C94
:1026A000653A20006F70656E206661696C65642C08
:1026B0002046696C653A2000556E6B6E6F776E2010
:1026C000636F6D6D616E643A2022006F70656E20DD
:1026D0006661696C65642C2046696C653A20005718
:1026E000726974696E6720746F2066696C653A2040
:1026F0000050726F62696E67206661696C65640A7A
:1027000000205A3A200020593A200042656420589F
:102710003A20002066697273740A005A0059005802
:1027200000486F6D65200000AAD685D611241FBE13
:10273000CFEFD1E2DEBFCDBF00E00CBF13E0A0E0E1
:10274000B2E0E6E9FCEC01E00BBF02C007900D929D
:10275000AE3BB107D9F72BE1AEEBB3E001C01D9260
:10276000AE33B207E1F713E1C5E9D3E100E006C0FB
:1027700021970109802FFE010E9478E5C439D10715
:1027800080E00807A9F70E947ECC0C943AE60C94EE
:1027900000002F923F924F925F926F927F928F92A2
:1027A0009F92AF92BF92CF92DF92EF92FF920F93E0
:1027B0001F93CF93DF93CDB7DEB7CB58D1090FB6B8
:1027C000F894DEBF0FBECDBF21E02093F3148091BB
:1027D000361B8D3411F40C94031D843511F40C94C4
:1027E000402C873411F00C948C2C8091341B9091E8
:1027F000351B8C31910509F43DC69CF4843091055C
:102800003CF482309105ACF597FF2CC00C94FF1C72
:102810008430910509F4CCC54B9709F4FFC50C949D
:10282000FF1C8A32910509F494C74CF48D3191054F
:1028300009F4B6C64E9709F4B7C60C94FF1C8B3545
:10284000910511F40C94851C8C35910511F40C94B0
:10285000891C8A35910511F00C94FF1C1092C2035B
:102860000C948E2C8091000281110C94932C0C946A
:102870008E2C20910002222311F40C948E2C11E056
:10288000029709F010E00E94419C82E50E947A853F
:10289000882309F43CC10E9400856B017C014090B3
:1028A000E31A5090E41A6090E51A7090E61A2091AD
:1028B000E71A3091E81A4091E91A5091EA1A2EA7C6
:1028C0003FA748AB59AB8091A4159091A515A09155
:1028D000A615B091A7158AAB9BABACABBDAB209155
:1028E000A8153091A9154091AA155091AB152AAFA2
:1028F0003BAF4CAF5DAF20E030E0A901C701B601AE
:102900000E94C2DB882309F439C5A30192016AA998
:102910007BA98CA99DA90E94C2DB81110DC02EA5A7
:102920003FA548A959A96AAD7BAD8CAD9DAD0E946C
:10293000C2DB882309F422C520E030E0A901C701E9
:10294000B6010E94C2DB881F8827881F18130BC09E
:1029500080E090E0A0E8BFE32A968CAF9DAFAEAFD9
:10296000BFAF2A970AC020E030E040E85FEB2A962C
:102970002CAF3DAF4EAF5FAF2A97A30192016AA97A
:102980007BA98CA99DA90E946EE222966CAF7DAFB7
:102990008EAF9FAF22972EA53FA548A959A96AAD32
:1029A0007BAD8CAD9DAD0E946EE226966CAF7DAF87
:1029B0008EAF9FAF269722962CAD3DAD4EAD5FAD4D
:1029C0002297CA01B9010E9427DC4B015C012696BF
:1029D0002CAD3DAD4EAD5FAD2697CA01B9010E9449
:1029E00027DC9B01AC01C501B4010E946FE20E948B
:1029F000DBE46EAB7FAB88AF99AF20E030E040E026
:102A00005FE30E9427DC4B015C01A7019601C7012F
:102A1000B6010E9427DC6B017C01A5019401C50170
:102A2000B4010E9427DC9B01AC01C701B6010E94E2
:102A30006EE20E94DBE49B01AC012A966CAD7DAD99
:102A40008EAD9FAD2A970E9427DC4B015C012AA91D
:102A50003BA94CA95DA9C301B2010E946FE220E02D
:102A600030E040E05FE30E9427DC6B017C012696AA
:102A70006CAD7DAD8EAD9FAD269790582EA93FA928
:102A800048AD59AD0E944BE39B01AC01C501B401B7
:102A90000E9427DC9B01AC01C701B6010E946FE2D6
:102AA000A30192010E946EE26B017C012AAD3BAD55
:102AB0004CAD5DAD6EA57FA588A999A90E946FE276
:102AC00020E030E040E05FE30E9427DC2B013C0186
:102AD0002EA93FA948AD59AD22966CAD7DAD8EAD06
:102AE0009FAD22970E944BE39B01AC01C501B4014D
:102AF0000E9427DC9B01AC01C301B2010E946FE27E
:102B00002EA53FA548A959A90E946EE214C089E4E8
:102B10000E947A85882329F00E9400856B017C0140
:102B200003C0C12CD12C76018AE40E947A858823C7
:102B3000D9F00E9400856AAF7BAF8CAF9DAF20E0DB
:102B400030E0A901C701B6010E94C2DB81111AC0A1
:102B500020E030E0A9016AAD7BAD8CAD9DAD0E9457
:102B6000C2DB81110FC00AC420E030E0A901C70117
:102B7000B6010E94C2DB882309F400C41AAE1BAE62
:102B80001CAE1DAED701C601B0588EA79FA7A8AB3B
:102B9000B9AB2AAD3BAD4CAD5DAD50582AAB3BABAC
:102BA0004CAB5DAB9C01AD01BC01CD010E9427DCAB
:102BB0004B015C012AA93BA94CA95DA9CA01B90135
:102BC0000E9427DC9B01AC01C501B4010E946FE2A9
:102BD0000E94DBE466966CAF7DAF8EAF9FAF6697C9
:102BE0008091E31A9091E41AA091E51AB091E61A47
:102BF0008EAB9FABA8AFB9AFA7019601BC01CD01C9
:102C00000E946FE22A966CAF7DAF8EAF9FAF2A977E
:102C10002091E71A3091E81A4091E91A5091EA1A86
:102C200022962CAF3DAF4EAF5FAF22972AAD3BADA2
:102C30004CAD5DAD22966CAD7DAD8EAD9FAD229756
:102C40000E946FE26A966CAF7DAF8EAF9FAF6A97BE
:102C50008091A4159091A515A091A615B091A715E6
:102C600026968CAF9DAFAEAFBFAF26972A962CAD00
:102C70003DAD4EAD5FAD2A97BC01CD010E946EE225
:102C80006B017C012091A8153091A9154091AA15DE
:102C90005091AB152E962CAF3DAF4EAF5FAF2E9738
:102CA0006A962CAD3DAD4EAD5FAD6A972E966CAD7C
:102CB0007DAD8EAD9FAD2E970E946EE24B015C0103
:102CC0008091EB1A9091EC1AA091ED1AB091EE1A46
:102CD00062968CAF9DAFAEAFBFAF62979C01AD0166
:102CE0006091AC157091AD158091AE159091AF15B6
:102CF0000E946EE22B013C012091B0153091B1157C
:102D00004091B2155091B315A2962CAF3DAF4EAF86
:102D10005FAFA2978091EF1A9091F01AA091F11AEB
:102D2000B091F21A6E968CAF9DAFAEAFBFAF6E97FB
:102D3000A70196016EA57FA588A999A90E9427DC05
:102D4000A6966CAF7DAF8EAF9FAFA697A5019401FD
:102D50006AA97BA98CA99DA90E9427DC9B01AC01D3
:102D6000A6966CAD7DAD8EAD9FADA6970E946FE22D
:102D7000A6966CAF7DAF8EAF9FAFA697A5019401CD
:102D80006EA57FA588A999A90E9427DC4B015C014B
:102D9000A70196016AA97BA98CA99DA90E9427DC9D
:102DA0009B01AC01C501B4010E946EE2A6962CAD58
:102DB0003DAD4EAD5FADA6970E94E2E26B017C0196
:102DC00020E030E0A9010E94C2DB87FF0AC02BEDA2
:102DD0003FE049EC50E4C701B6010E946FE26B018D
:102DE0007C01112351F02BED3FE049EC50E4C70189
:102DF000B6010E946EE26B017C0120E030E0A90187
:102E0000C701B6010E94C2DB811126C026962CADF7
:102E10003DAD4EAD5FAD26976EA97FA988AD99AD4A
:102E20000E94C2DB811118C02E962CAD3DAD4EAD77
:102E30005FAD2E9722966CAD7DAD8EAD9FAD229786
:102E40000E94C2DB811108C06BEDC62E6FE0D62E4A
:102E500069ECE62E60E4F62EA701960166966CAD4D
:102E60007DAD8EAD9FAD66970E9427DC4B015C0166
:102E700020E030E0A901C301B2010E94C2DB882337
:102E8000C9F0A5019401C501B4010E9427DC4B01E2
:102E90005C01A3019201C301B2010E9427DC9B01E6
:102EA000AC01C501B4010E946FE20E94DBE44B015A
:102EB0005C010DC020E030E0A901C501B4010E9411
:102EC00095E487FF04C0B7FAB094B7F8B0942FE642
:102ED00032E143E85AE3C501B4010E94C2DB87FF37
:102EE00002C00C948E2CC501B4010E94E4E30E9440
:102EF000B8E31B01672B19F422242394312CB10170
:102F000080E090E00E94C6DB4B015C019B01AC01BC
:102F1000C701B6010E944BE36EAB7FAB88AF99AFA0
:102F2000A5019401C301B2010E944BE366966CAF08
:102F30007DAF8EAF9FAF66976E962CAD3DAD4EAD1B
:102F40005FAD6E97A2966CAD7DAD8EAD9FADA29735
:102F50000E946EE2A50194010E944BE3A2966CAF21
:102F60007DAF8EAF9FAFA2972EA93FA948AD59ADB7
:102F7000CA01B9010E9427DC20E030E040E05FE3B5
:102F80000E9427DC9B01AC0160E070E080E89FE3D9
:102F90000E946EE22E966CAF7DAF8EAF9FAF2E97E4
:102FA00062962CAD3DAD4EAD5FAD629729873A87F5
:102FB0004B875C876E968CAD9DADAEADBFAD6E9709
:102FC0008D879E87AF87B88B609103027091040252
:102FD000072E000C880B990B0E94C8DB20917A0207
:102FE00030917B0240917C0250917D020E9427DC4F
:102FF0002AE037ED43E25CE30E9427DC6AA77BA767
:103000008CA79DA70E949C7C9B01AC0128533F4F3D
:103010004F4F5F4F62962CAF3DAF4EAF5FAF6297A1
:103020004EA45FA468A879A841E050E024965FAF61
:103030004EAF249759E15EAF24962EAD3FAD249755
:103040002215330509F43FC10E94C1BC0E949C7C3B
:10305000DC01CB0162962CAD3DAD4EAD5FAD62970C
:10306000821B930BA40BB50BB7FD11C00E949C7C77
:103070009B01AC0128533F4F4F4F5F4F62962CAFDF
:103080003DAF4EAF5FAF629780E00E9412AD3EADA4
:1030900031503EAF332309F441C02E962CAD3DADE7
:1030A0004EAD5FAD2E976AA97BA98CA99DA90E9400
:1030B00027DC6B017C012EA93FA948AD59ADB201B7
:1030C000C3010E9427DCA70196010E946FE27B01E9
:1030D0008C012E962CAD3DAD4EAD5FAD2E97B2015D
:1030E000C3010E9427DC4B015C012EA93FA948AD1A
:1030F00059AD6AA97BA98CA99DA90E9427DC9B01D7
:10310000AC01C501B4010E946EE22B013C01C70174
:10311000D8018AAB9BABACABBDAB53C024964EADD4
:103120005FAD2497BA0180E090E00E94C6DB2EA933
:103130003FA948AD59AD0E9427DC4B015C010E94BC
:1031400048E36B017C01C501B4010E94D1E44B014D
:103150005C01A70196016EA57FA588A999A90E9487
:1031600027DC2B013C01A50194016AAD7BAD8CAD40
:103170009DAD0E9427DC9B01AC01C301B2010E94FE
:103180006FE22B013C01A50194016EA57FA588A9E2
:1031900099A90E9427DC4B015C01A70196016AAD49
:1031A0007BAD8CAD9DAD0E9427DC9B01AC01C501C0
:1031B000B4010E946EE26AAB7BAB8CAB9DAB59E174
:1031C0005EAF9201A3012A966CAD7DAD8EAD9FAD31
:1031D0002A970E946FE269837A838B839C832AA952
:1031E0003BA94CA95DA96A966CAD7DAD8EAD9FAD36
:1031F0006A970E946FE26D837E838F8398876696BD
:103200002CAD3DAD4EAD5FAD669769857A858B85FA
:103210009C850E946FE269877A878B879C87A2963C
:103220002CAD3DAD4EAD5FADA2976D857E858F8592
:1032300098890E946FE26D877E878F87988B809137
:103240003A02882321F0CE0101960E9475C1E090D8
:10325000400E1AA21BA21CA21DA289819A81AB81D9
:10326000BC818E8B9F8BA88FB98F8D819E81AF8102
:10327000B8858A8F9B8FAC8FBD8F89859A85AB85EA
:10328000BC858E8F9F8FA8A3B9A3AE01425E5F4F0E
:10329000BE01665E7F4FCE0146960E946D71CE01E3
:1032A00082966C018E01065D1F4F9E01235F3F4F8A
:1032B000AE01425E5F4FBE01665E7F4F0C970E947B
:1032C0008256811151C0E090400E1EA21FA218A686
:1032D00019A68091A4159091A515A091A615B0915D
:1032E000A7158E8B9F8BA88FB98F8091A815909171
:1032F000A915A091AA15B091AB158A8F9B8FAC8FA1
:10330000BD8F8091AC159091AD15A091AE15B09187
:10331000AF158E8F9F8FA8A3B9A3AE01425E5F4FFA
:10332000BE01665E7F4FCE0146960E946D71DE0142
:1033300096966D018E01065D1F4F20EB35E1AE01C3
:10334000425E5F4FBE01665E7F4FCE0146960E9491
:10335000825680E1E4EAF5E1A3EEBAE101900D9234
:103360008A95E1F70C948E2C2496EEADFFAD249750
:1033700031962496FFAFEEAF24975ECEE7E7F6E2F4
:1033800084918F010F5F1F4F882321F00E946E866A
:10339000F801F6CFE1E3F4E084918F010F5F1F4F56
:1033A000882311F40C948E2C0E946E86F801F4CFC1
:1033B00080E50E947A85882329F00E94C0846B01F1
:1033C0007C0103C0C12CD12C760183E50E947A8553
:1033D000882361F00E94008520E030E04AE754E451
:1033E0000E9427DC0E94B8E36B017C010E940571FA
:1033F0000E949C7CC60ED71EE81EF91E0E949C7C73
:10340000DC01CB018C199D09AE09BF09B7FD02C0D3
:103410000C948E2C80E00E9412ADF0CF0E9499C7D0
:1034200081110C948E2C80E090E0A0E4B0E48983BC
:103430009A83AB83BC838D839E83AF83B88780E000
:1034400090E0A0EAB1E489879A87AB87BC8780E5E2
:103450000E947A85882319F00E94D08401C060E020
:103460006E8BBE016F5F7F4FCE0146960E94F17357
:103470000C948E2C8091D21A8770873071F48FE46F
:103480000E947A85882319F00E94F18403C08FE49A
:103490000E94338581110C948E2C0E94057180E06E
:1034A0000E94C29E0E94669F11E01093670488E507
:1034B0000E943385A82E89E50E943385082F8AE56E
:1034C0000E943385B82EA11004C0011104C0182732
:1034D00005C0011102C010E001C0182F0E945A86D9
:1034E00082E50E947A85882361F00E9400856B0145
:1034F0007C0120E030E0A9010E94C2DB882371F149
:1035000006C0C12CD12C40EAE42E40E4F42E111167
:1035100004C0A11002C0002391F1C092AC15D0925A
:10352000AD15E092AE15F092AF152091EB1A3091E7
:10353000EC1A4091ED1A5091EE1AC701B6010E94A3
:1035400095E418165CF419821A821B821C82BE0153
:103550006F5F7F4F8CEA95E10E9462A0111105C058
:10356000A11003C0011106C00AC080E00E9407C27A
:103570001123C1F381E00E9407C2111102C0BB20D8
:1035800019F082E00E9407C20E947984809166044B
:10359000809367040E944D9F0E94C2A50C948E2CBC
:1035A0000E9482A80C948E2CC090E31AD090E41A4A
:1035B000E090E51AF090E61A88E50E947A8581117C
:1035C00009C020E030E040E251E4C701B6010E94AA
:1035D0006FE202C00E9400856E8B7F8B888F998F6F
:1035E000C090E71AD090E81AE090E91AF090EA1A31
:1035F00089E50E947A85811109C020E030E040E22F
:1036000051E4C701B6010E946FE202C00E9400852A
:103610009B01AC0169837A838B839C836E897F894C
:10362000888D998D0E943FC3882311F40C948E2CB1
:1036300080E00E94C29E0E94669F85E40E947A8577
:10364000882321F00E94F184182F04C085E40E9491
:10365000338511E086E50E947A85882321F00E9457
:10366000D084262F01C021E0412FBE016F5F7F4F24
:10367000CE0146960E9455C86B017C019B01AC01AE
:103680000E941DE581115FC08E889F88A88CB98C2F
:1036900020E030E0A901C501B4010E94C2DB87FD32
:1036A00005C027E137EB41E558E304C027E137EBDC
:1036B00041E558EBC501B4010E946FE2AB01BC01CA
:1036C00081E594E00E94979B89809A80AB80BC80C2
:1036D00020E030E0A901C501B4010E94C2DB87FDF2
:1036E00005C027E137EB41E558E304C027E137EB9C
:1036F00041E558EBC501B4010E946FE2AB01BC018A
:103700008CE494E00E94979B20E030E0A901C7017F
:10371000B6010E94C2DB87FD05C027E137EB41E51A
:1037200058E304C027E137EB41E558EBC701B60188
:103730000E946FE2AB01BC0187E494E00E94979B7A
:103740008AE00E946E860E944D9F0E94C2A50C9442
:103750008E2C80910002882311F40C948E2C89E425
:103760000E947A85182F882321F00E94D084E62EAB
:1037700001C0E12C8AE40E947A85082F882331F069
:103780000E94D084F62E111104C00BC0F12C11231D
:10379000C1F032E03E1510F00C94E031E9E5F4E0C0
:1037A00004C042E04F15D0F30CC084918F010F5F2D
:1037B0001F4F882311F40C948E2C0E946E86F80102
:1037C000F4CF0E945A861123F1F020910B0E309114
:1037D0000C0E5E2D5203B001539F700D1124809189
:1037E000050E9091060E680F791F072E000C880BAE
:1037F000990B0E94C8DB6093A4157093A515809364
:10380000A6159093A7150023F1F020910D0E30918D
:103810000E0E4F2D4203B001439F700D11242091D5
:10382000070E3091080E620F731F072E000C880BD5
:10383000990B0E94C8DB6093A8157093A91580931B
:10384000AA159093AB1580E50E947A858823E9F04C
:103850000E94F1848823A9F11123D9F020E030E0FF
:1038600040E251E46091A4157091A5158091A615D0
:103870009091A7150E946EE26093A4157093A51510
:103880008093A6159093A71504C080E50E94338508
:10389000E1CF0023B1F020E030E040E251E460915C
:1038A000A8157091A9158091AA159091AB150E9449
:1038B0006EE26093A8157093A9158093AA15909352
:1038C000AB1586E40E947A858823D9F00E94008592
:1038D0006B017C0120E030E0A9010E9495E41816FC
:1038E00084F420E030E040E752E4C701B6010E94D2
:1038F0004BE360937A0270937B0280937C029093F7
:103900007D020E94F4B00C948E2C2093C2030C9480
:103910008E2C2EE7222E22E0322E38E9C32E35E1FE
:10392000D32EE12CF12C00E010E0D1018D911D018E
:103930000E947A85882309F44EC00E9400852B01DD
:103940003C01133059F0F701ED52F54E20813181E1
:10395000428153810E946EE22B013C01F701ED513F
:10396000F54E2081318142815381C301B2010E9411
:103970006EE24B015C012DEB37E346E855EB0E940C
:1039800095E487FD0AC02DEB37E346E855E3C50112
:10399000B4010E94C2DB1816F4F4133051F44092C3
:1039A000EF1A5092F01A6092F11A7092F21A01E036
:1039B00012C0A5019401F601608171818281938119
:1039C0000E946FE2D6016D937D938D939C93139724
:1039D000812F0E9464A11F5FB4E0CB0ED11CE4E0F4
:1039E000EE0EF11C143009F0A0CF002321F08FEE71
:1039F0009AE10E940AC80E94C2A50C948E2C0E94D3
:103A0000BCCA0C948E2C8091341B9091351B853749
:103A1000910511F40C948E2C0CF0B9C08C349105E6
:103A200009F401C40CF053C08931910509F45DC259
:103A300034F58431910509F432C27CF48131910569
:103A400009F429C22CF4029708F49DC10C943D2C72
:103A5000429709F4A1C60C943D2C8631910509F4D6
:103A600026C20CF420C28731910509F426C248977A
:103A700011F00C943D2C0E94CAA60C948E2C8E3111
:103A8000910509F4EAC284F48B31910509F441C22D
:103A90000CF431C28C31910509F4D5C24D9711F463
:103AA0000C948E2C0C943D2C8032910509F4EFC2BD
:103AB0000CF43CC38A32910509F45DC38B34910543
:103AC00011F00C943D2C0E9451550C948E2C89368B
:103AD000910509F479C544F58335910509F458C673
:103AE0009CF48E34910509F4A6C30CF4A0C381356F
:103AF000910509F435C68235910511F00C943D2CE1
:103B00001092C1030C948E2C8535910509F479C669
:103B10000CF442C68C35910509F48EC688369105A1
:103B200009F48BC40C943D2C8E36910509F4BBC46A
:103B300084F48B36910509F4FBC50CF4D2C58C36A0
:103B4000910509F411C58D36910509F47FC50C94D2
:103B50003D2C8137910509F40BC56CF48F36910526
:103B600009F4B4C48037910511F00C943D2C89E61A
:103B700095E00E94C8C38237910509F4E5C68337F2
:103B8000910511F00C943D2CE3E6F6E0E2C68E328E
:103B9000F1E09F0711F40C94F9250CF068C08B3C00
:103BA000910509F440C794F58C38910509F46CC56A
:103BB000ACF48737910509F42AC70CF425C7883778
:103BC000910509F427C78937910511F00C943D2C14
:103BD00010926704109266040C948E2C8E3B910513
:103BE00009F468C534F48B39910509F408C50C94BF
:103BF0003D2C883C910509F413C7893C910511F0CF
:103C00000C943D2C0E94BFA40C948E2C8C3D9105ED
:103C100009F415C79CF48D3C910509F40AC70CF40E
:103C200005C78E3C910509F407C7833D910511F046
:103C30000C943D2C0E947A8F0C948E2C823E910520
:103C400009F40AC74CF48D3D910511F00C943D2CFC
:103C50000E94058F0C948E2C8C3231E0930709F46E
:103C6000FEC68D32914009F423C70C943D2C843F4D
:103C700051E0950711F40C94132B0CF045C08239D8
:103C8000B1E09B0711F40C94B829FCF48336F1E001
:103C90009F0711F40C949C2934F48F32914009F45D
:103CA000FCC70C943D2C803941E0940711F40C942E
:103CB000B5298139914011F00C943D2C81E00E948E
:103CC000C4A00E94C2A50C948E2C843AA1E09A074D
:103CD00011F40C94BE294CF48A39914011F00C94E3
:103CE0003D2C0E94648E0C948E2C853AF1E09F0747
:103CF00011F40C947F2A8C3A914011F00C943D2CD5
:103D00000E946C8D0C948E2C883532E0930711F450
:103D10000C944B2BB4F4863F51E0950711F40C94AE
:103D2000192B14F40C94162B873FB1E09B0711F468
:103D30000C941C2B883F914011F40C94282B0C946C
:103D40003D2C8B38F3E09F0711F40C948E2C6CF40F
:103D50008B3532E0930711F40C944E2B833593404E
:103D600011F40C94D72B0C943D2C803A53E095071A
:103D700009F4CFC1873E934011F00C943D2C0E9472
:103D8000F9880C948E2C0091321B1091331B80E526
:103D90000E947A85882361F00E94C0846B017C01B7
:103DA000BB24B394672B682B692B31F4B12C04C06E
:103DB000B12CC12CD12C760183E50E947A85882311
:103DC00011F40C94982C0E94008520E030E04AE722
:103DD00054E40E9427DC0E94B8E36B017C01B1101F
:103DE0000BC0672B682B692B39F40115110521F0E5
:103DF000F8018081811102C0B12C02C0BB24B394B0
:103E00000E940571BB20C1F0E4E8FEE084915F01EF
:103E10002FEFA21AB20A882321F00E946E86F501C4
:103E2000F5CFD8018D918D01882319F00E946E86FF
:103E3000F8CF8AE00E946E8683E08093F31481E0DD
:103E400080934604C114D104E104F104E1F00E941E
:103E50009C7CC60ED71EE81EF91E0E949C7CDC01CD
:103E6000CB018C199D09AE09BF09B7FD04C01092A2
:103E700046040C948E2C809146048823C1F380E084
:103E80000E9412ADEACF80914604882381F380E03E
:103E90000E9412ADF8CF0E94EFB00C948E2C0E94BD
:103EA0001CA70C948E2C0E94BB530C948E2C109249
:103EB0000418109205180C948E2C0E94FC4DE09171
:103EC000321BF091331B8081882329F0803209F462
:103ED00010823196F8CF40E061E08091321B9091E2
:103EE000331B0E9481500C948E2C109204180E9457
:103EF000E8930C948E2C80910518882311F40C946F
:103F00008E2C83E50E947A8581110C949D2C0C9453
:103F10008E2C83E40E943385882309F454C0E5EA9B
:103F2000F4E084918F010F5F1F4F882321F00E94DE
:103F30006E86F801F6CF8091CF19882391F0BE01EB
:103F40006F5F7F4F8CEC99E10E943EBE8E010F5F48
:103F50001F4FF80181918F01882381F10E946E86A5
:103F6000F8CFE8E7F4E084918F010F5F1F4F8823BB
:103F700029F10E946E86F801F6CF8091D70D882333
:103F800009F4E5C294E5C92E95E0D92EE12CF12C77
:103F900020E08091D70D90E00E2C02C0959587957A
:103FA0000A94E2F780FDBBC2FFEFEF1AFF0A32E08E
:103FB000C30ED11C45E0E416F10459F78AE00E94D3
:103FC0006E860C948E2C80910518882371F1809157
:103FD0000418882351F1E2E8F4E084918F010F5F27
:103FE0001F4F882321F00E946E86F801F6CF609162
:103FF0009C1A70919D1A80919E1A90919F1A4AE086
:104000000E9478868FE20E946E866091981A709165
:10401000991A80919A1A90919B1A4AE00E94788688
:104020008AE00E946E860C948E2CE4E9F4E0849180
:104030008F010F5F1F4F882311F40C948E2C0E9468
:104040006E86F801F4CF40E060E08091321B9091E1
:10405000331B0E9481500C948E2C8091051888236C
:1040600011F40C948E2C8CEC99E10E946B458CEC35
:1040700099E10E948EBE109203181092021880914E
:10408000321B9091331B0E9495C60C948E2C80910C
:10409000041881110E94057180910518882311F47C
:1040A0000C948E2C80E50E947A85882319F00E945A
:1040B000F18403C080E50E943385182F482F61E00A
:1040C0008091321B9091331B0E94815083E50E94A6
:1040D0007A85882381F00E94D084AB01BC01409393
:1040E0009C1A50939D1A60939E1A70939F1A8CECA1
:1040F00099E10E94AC4580910518882319F081E070
:104100008093041811110C948E2C0E9451550C941C
:104110008E2C8091321B9091331B21E02093031849
:1041200040E060E00E9481500C948E2C0E94999394
:104130006E8B7F8B888F998FBE016F5F7F4FCE0113
:1041400046960E948685E4E8FEE084918F010F5F29
:104150001F4F882321F00E946E86F801F6CFBE0122
:104160006F5F7F4F84EB94E00E9429558AE00E94A4
:104170006E860C948E2C83E50E947A85882311F438
:104180000C948E2C0E94E084E82E80E50E947A85B3
:10419000882339F00E94E084182F87FF03C00C9415
:1041A0008E2C1DE089E40E947A85882349F00E94C4
:1041B000F184811111C0E1ECF4E08DE28E0F07C0B3
:1041C00089E40E943385F5CF31968E1729F09491BA
:1041D0001913FACF0C94E73161E0812F0E94617BC3
:1041E0006E2D812F0E94327BF12CB701812F0E940E
:1041F0009D7B1D3261F01E3281F01C3211F00C9457
:104200008E2CF092030BE092020B0C948E2CF09209
:10421000050BE092040B0C948E2CF092070BE092AD
:10422000060B0C948E2C0E94E8930C948E2C0E940A
:1042300098550C948E2C83E50E947A85811103C0D9
:10424000ECE4F5E009C00E94D0846E347105C1F73A
:104250000E9408560C948E2C84918F010F5F1F4F83
:10426000882321F00E946E86F801F6CFE3E4F5E0A2
:1042700084918F010F5F1F4F882321F00E946E866B
:10428000F801F6CF6091690470916A0480E090E0D3
:104290004AE00E947886E6E3F5E084918F010F5FA3
:1042A0001F4F882321F00E946E86F801F6CF60919F
:1042B0006B0470916C0480E090E04AE00E94788684
:1042C000EBE2F5E084918F010F5F1F4F882321F00F
:1042D0000E946E86F801F6CF6091690470916A04BD
:1042E00080916B0490916C04681B790B809147045A
:1042F000815021E030E0823010F020E030E0621B9D
:10430000730B80E090E04AE00E9478868AE00E9489
:104310006E86E3E2F5E084918F010F5F1F4F8823E3
:1043200021F00E946E86F801F6CF80916D04909185
:104330006E04A0916F04B09170048E8B9F8BA88F38
:10434000B98FBE016F5F7F4FCE0146960E94868572
:10435000E6E1F5E084918F010F5F1F4F811106C0E8
:104360009E012F5F3F4F7901890104C00E946E8634
:10437000F801F0CFD8018D918D01882319F00E94AA
:104380006E86F8CF8091710490917204A0917304AD
:10439000B09174048E8B9F8BA88FB98FBE016F5F15
:1043A0007F4FCE0146960E948685E6E0F5E0849137
:1043B0008F010F5F1F4F882321F00E946E86F80146
:1043C000F6CFF70181917F01882319F00E946E8654
:1043D000F8CF8AE00E946E86EEEFF4E084918F01C0
:1043E0000F5F1F4F882321F00E946E86F801F6CFE1
:1043F000EEEEF4E084918F010F5F1F4F882321F0D0
:104400000E946E86F801F6CF20E030E04AE754E4DF
:10441000609175047091760480917704909178048E
:104420000E944BE342E00E94F8868DE60E946E8671
:104430008AE00E946E860C948E2C88E690E00E94A2
:10444000A4A181110C948E2C8091D70D83FF02C002
:104450000C948E2C83E50E947A85882301F10E94BA
:1044600000850E94B3E370937E0960937D0980E02C
:104470000E9485BB8091790490917A048460909326
:104480007A04809379040E94008520E030E04AEAB3
:1044900052E40E94C2DB181614F00E9498550E9444
:1044A00097D40C948E2C8EE40E947A85882311F484
:1044B0000C948E2C0E94D0846093B6157093B7151F
:1044C0008093B8159093B9150C948E2C83E50E94B7
:1044D0003385882359F083E50E947A85882319F073
:1044E0000E94E08401C080E08093D70DE4E8FEE004
:1044F00084918F010F5F1F4F882321F00E946E86E9
:10450000F801F6CFE2E6F5E084918F010F5F1F4FCF
:10451000882309F432CD0E946E86F801F5CFBB24C2
:10452000B394B20E222319F08CE20E946E86F6013B
:1045300025913491F901849189010F5F1F4F8823E0
:1045400021F00E946E869801F5CF2B2D2DCDEEE542
:10455000F5E084918F010F5F1F4F882309F42ECD62
:104560000E946E86F801F5CF10921B020C948E2CDF
:1045700083E50E947A85882369F00E94E0848D3368
:1045800020F480936A020C948E2C8CE380936A0250
:104590000C948E2CE4E8FEE084918F010F5F1F4F96
:1045A000882321F00E946E86F801F6CF40916A02BE
:1045B00050E060E070E082E795E00E947A9B8AE03C
:1045C0000E946E860C948E2C89E690E00E94A4A135
:1045D000811111C0E9E7F5E084918F010F5F1F4F52
:1045E000882321F00E946E86F801F6CF0E9436B92A
:1045F0008AE00E946E861092F3140C94EA3183E5EF
:104600000E947A85882311F40C948E2C0E94E084F9
:10461000182F8D3308F01CE3109302150E949C7C28
:104620006B017C01212F30E0A8EEB3E00E945FE235
:10463000C60ED71EE81EF91EC092FE14D092FF14BB
:10464000E0920015F09201150C948E2C8DE690E00E
:104650000E94A4A181110C948E2C8091D70D83FF10
:1046600002C00C948E2C83E50E947A8527968FAF2A
:10467000279781110C94AE2C82E50E947A858111D6
:104680000C94AE2C0C948E2C8091D70D83FF02C01D
:104690000C948E2C83E50E947A85882311F40C9467
:1046A0008E2C0E9400850E94B3E3CB010E944C86B1
:1046B0000C948E2C8091D70D83FF02C00C948E2C0D
:1046C00083E50E947A8527968FAF279781110C94F6
:1046D000382E82E50E947A8581110C94382E0C9434
:1046E0008E2C80E50E947A85882341F00E94E08428
:1046F000182F833010F00C948E2C01C010E083E54D
:104700000E947A85882319F00E94D08402C06FEF3E
:1047100070E0E12FF0E06F3F710510F06FEF70E097
:10472000EE0FFF1FEE5FF44F718360830C948E2CAD
:1047300080E50E947A85882341F00E94D08463300E
:10474000710510F00C948E2C02C060E070E0660FD2
:10475000771FFB01EE5FF44F118210820C948E2CB8
:104760000E94D0BB0E9416711092030B1092020B94
:104770001092050B1092040B1092070B1092060B6F
:1047800068EE73E080E090E00E94F27C0C948E2C46
:104790002093C1030C948E2C83E50E947A85882394
:1047A000A1F00E94008520E030E04AE754E40E9436
:1047B00027DC0E94B8E360936B0270936C028093D5
:1047C0006D0290936E020C948E2C88E50E943385C6
:1047D00081110C94B42F89E50E94338581110C94CA
:1047E000B42F8AE50E94338581110C94B42F85E49F
:1047F0000E94338581110C94B42F0E9416710C9481
:104800008E2C83E50E943385882311F40C948E2C22
:104810000E94008520E030E04AE754E40E9427DC53
:104820000E94B8E36093F8147093F9148093FA141B
:104830009093FB140C948E2C6EE7C62E62E0D62E5D
:1048400073E0E72E7BE1F72E10E0D6018D916D012C
:104850000E943385882309F46DC0133009F063C0CA
:104860000E9400854B015C0120E030E040EA51E409
:104870000E94C2DB87FF4EC0A501940160910F1B0F
:104880007091101B8091111B9091121B0E944BE3A1
:104890002B013C019B01AC0160916E0E70916F0E7B
:1048A0008091700E9091710E0E9427DC60936E0EC5
:1048B00070936F0E8093700E9093710EA30192010E
:1048C0006091A60E7091A70E8091A80E9091A90EEE
:1048D0000E9427DC6093A60E7093A70E8093A80E0B
:1048E0009093A90E6091E40D7091E50D8091E60D15
:1048F0009091E70D0E94C6DBA30192010E9427DC84
:104900000E94B8E36093E40D7093E50D8093E60D8B
:104910009093E70D80920F1B9092101BA092111B99
:10492000B092121B07C00E940085F701608371835B
:10493000828393831F5FF4E0EF0EF11C143009F0C3
:1049400084CF0E940B65EAC70E9405710E94C2A530
:10495000E5C784918F010F5F1F4F882321F00E94CC
:104960006E86F801F6CF60E083E596E00E947EA5B2
:1049700061E08CE496E00E947EA561E081E496E02F
:104980000E947EA561E081E396E00E947EA560E042
:1049900088E296E00E947EA561E08EE196E00E94AA
:1049A0007EA561E084E196E00E947EA561E08CE056
:1049B00096E00E947EA561E08EEF95E00E947EA5C4
:1049C00060E080EF95E00E947EA560E081EE95E0DA
:1049D0000E947EA560E083ED95E00E947EA560E0E8
:1049E0008DEB95E00E947EA560E08CEA95E00E9448
:1049F0007EA560E087E995E00E947EA561E084E8FD
:104A000095E00E947EA58AC70E942CA587C70E94B8
:104A1000017584C781E080936704809366047EC734
:104A20000E94E4A47BC70E94799178C70E940291FA
:104A300075C70E94819072C70E9458906FC783E526
:104A40000E947A85882309F469C70E94D0847093F4
:104A500004026093030262C70E949E8E5FC783E5D3
:104A60000E947A85882319F00E94D08402C064E0F5
:104A700071E07F8B6E8B80E50E947A85882339F008
:104A80000E94D084693823E1720730F402C068EED6
:104A900073E07A83698304C088E893E19A83898309
:104AA000BE016A5E7F4FCE0101960E9488CA36C75A
:104AB00085E40E947A85811110C080E50E943385CB
:104AC000882391F00E9400856093B20E7093B30E1C
:104AD0008093B40E9093B50E07C00E94E0848823A3
:104AE00061F3E7E7F6E26EC089E40E94338588232C
:104AF00081F00E9400852CEA35EC47E25EE30E94DB
:104B000027DC6093AE0E7093AF0E8093B00E90933F
:104B1000B10E84E40E943385882381F00E940085D1
:104B20002CEA35EC47E25EE30E944BE36093AA0E69
:104B30007093AB0E8093AC0E9093AD0EE4E8FEE064
:104B400084918F010F5F1F4F882321F00E946E8692
:104B5000F801F6CF4091B20E5091B30E6091B40EB1
:104B60007091B50E81E397E00E94979B2CEA35EC9B
:104B700047E25EE36091AE0E7091AF0E8091B00E91
:104B80009091B10E0E944BE3AB01BC018DE297E026
:104B90000E94979B2CEA35EC47E25EE36091AA0EF7
:104BA0007091AB0E8091AC0E9091AD0E0E9427DCFF
:104BB000AB01BC0189E297E00E94979B8AE00E94CA
:104BC0006E86ACC684918F010F5F1F4F882321F042
:104BD0000E946E86F801F6CFE5E3F7E084918F013D
:104BE0000F5F1F4F882309F499C60E946E86F80153
:104BF000F5CF83E50E943385182F882371F00E943A
:104C000000850E94B3E3709321026093200221E0AB
:104C1000672B09F020E02093D60D80E50E943385B4
:104C2000882359F02091200230912102232B11F08A
:104C30000E94F1848093D60D71C611116FC6E4E80D
:104C4000FEE084918F010F5F1F4F882321F00E94A7
:104C50006E86F801F6CF8091D60D811103C062E512
:104C600073E002C062EA73E08CE597E00E94295588
:104C700060912002709121028BE497E00E94B49B26
:104C8000E7E4F7E084918F010F5F1F4F882309F459
:104C900045C60E946E86F801F5CF85E40E947A85AC
:104CA000882321F00E94D0847B0102C0E12CF12CEA
:104CB00083E40E947A85882331F00E94D084E096B4
:104CC0006FAFE09704C035E0E0963FAFE09785E531
:104CD0000E947A85882319F00E94F18403C085E53B
:104CE0000E943385EC968FAFEC97F7FC07C0812CC0
:104CF000912C56E1A52E53E4B52E06C0812C912CA3
:104D00004CE8A42E42E4B42E83E50E947A858823E1
:104D100021F00E9400854B015C01E114F10411F4C3
:104D200010925F150E949C7C2B013C01EE2069F0E3
:104D3000EEEDF8E084918F010F5F1F4F882309F497
:104D4000EDC50E946E86F801F5CFE8E0F9E08491A8
:104D50007F014FEFE41AF40A882321F00E946E8647
:104D6000F701F5CFC501B4010E94B3E3072E000C93
:104D7000880B990B0E94C8DB6AAF7EAB8EAF23967F
:104D80009FAF2397D301C201805E914BAF4FBF4FBE
:104D9000CC57DF4F88839983AA83BB83C458D04004
:104DA0000E94D0BB8FE780935E1581E080931B0249
:104DB000E7964CAE5DAE6EAE7FAEE797C458DF4F60
:104DC000488259826A827B82CC57D040E3961FAEDC
:104DD000E397C058DF4F188219821A821B82C0588D
:104DE000D04067961FAE679790E42B969FAF2B97A6
:104DF000ACE12F96AFAF2F97B6E46B96BFAF6B9732
:104E000063961FAE63976F961FAE6F97A3961FAE04
:104E1000A397A7961FAEA797AF961CAE1DAE1EAE6A
:104E20001FAEAF97AB961CAE1DAE1EAE1FAEAB97BE
:104E3000C12CD12C76012FE730E040E050E02AABC6
:104E40003BAB4CAB5DAB3FE7832E912CA12CB12C3F
:104E5000EB961CAE1DAE1EAE1FAEEB9731E0E29698
:104E60003FAFE29728961FAE1EAE289710E0212C88
:104E7000312C00E0E0964FADE097042E000C550B6E
:104E8000E1965FAF4EAFE19780911B02882309F452
:104E9000FEC00E949C7C6EA77FA788AB99AB8091D7
:104EA0005B15882309F4D5C00E94A2BC10915E0E48
:104EB00020905F0E3090600E0091610E212F322DF8
:104EC000432D502F63966FAD63976F967FAD6F97AD
:104ED000A3968FADA397A7969FADA7970E94C2DB1D
:104EE00087FF0CC063961FAF63976F962FAE6F97C7
:104EF000A3963FAEA397A7960FAFA797212F322D6A
:104F0000432D502F67966FAD67972B967FAD2B97EC
:104F10002F968FAD2F976B969FAD6B970E9495E460
:104F2000181664F467961FAF67972B962FAE2B97D2
:104F30002F963FAE2F976B960FAF6B97E2965FADB4
:104F4000E2972AAD3EA94EAD552309F460C02396E1
:104F50005FAD2397612F722D832D902F0E9495E4D2
:104F600018160CF076C08EA59FA5A8A9B9A984191A
:104F70009509A609B709C857DF4F88839983AA8383
:104F8000BB83C858D04088589341A109B109B7FDE7
:104F900060C0D501C4012AA93BA94CA95DA9821B07
:104FA000930BA40BB50BB595A79597958795809313
:104FB0005E15C857DF4F88819981AA81BB81C85887
:104FC000D040EB968CAF9DAFAEAFBFAFEB979AAD35
:104FD00063969FAF6397AEA96F96AFAF6F97BEAD65
:104FE000A396BFAFA3972396EFAD2397A796EFAFF6
:104FF000A7972EA53FA548A959A9E7962CAF3DAF85
:105000004EAF5FAFE797E2961FAEE29722C02396BE
:105010005FAD2397612F722D832D902F0E94C2DBED
:1050200087FF17C08EA59FA5A8A9B9A9E7962CADA3
:105030003DAD4EAD5FADE797821B930BA40BB50B57
:10504000AC01BD01485853416109710977FD01C0A8
:10505000B6C720E030E040EA51E46AAD7EA98EADEB
:1050600023969FAD23970E946FE29B01AC01612FB5
:10507000722D832D902F0E9495E418167CF4EAE699
:10508000F8E084918F010F5F1F4F811103C00E94D0
:10509000D0BB44C40E946E86F801F3CF8EA59FA5B5
:1050A000A8A9B9A9C458DF4F288139814A815B81F9
:1050B000CC57D040821B930BA40BB50BB7FD9FC000
:1050C0000E9436B98AE00E946E868EA59FA5A8A987
:1050D000B9A98053984FAF4FBF4FC458DF4F888353
:1050E0009983AA83BB83CC57D040E3969FADE397C7
:1050F000911168C0C058DF4F288139814A815B8196
:10510000C058D040612F722D832D902F0E9495E4BE
:1051100018160CF040C020E030E040E050E4612F71
:10512000722D832D902F0E946FE2C058DF4F68834D
:1051300079838A839B83C058D0402EA53FA548A978
:1051400059A9205E314B4F4F5F4FCC57DF4F28831B
:1051500039834A835B83C458D04020E030E040E587
:1051600051E46AAD7EA98EAD23969FAD23970E9430
:105170006EE29B01AC0181E0E3968FAFE397612F74
:10518000722D832D902F0E9495E41816C4F1E3969A
:105190001FAEE39734C08EA59FA5A8A9B9A9CC5787
:1051A000DF4F288139814A815B81C458D040821BFE
:1051B000930BA40BB50BB7FD22C049E458E06BE597
:1051C00078E01AC020E030E040EA51E46AAD7EA900
:1051D0008EAD23969FAD23970E946EE29B01AC019A
:1051E000612F722D832D902F0E94C2DB87FF07C095
:1051F00046E258E069E378E080E00E942C938EA5B7
:105200009FA5A8A9B9A9880F991FAA1FBB1FE79638
:105210002CAD3DAD4EAD5FADE797821B930BA40B5C
:10522000B50B84199509A609B70981389F44A24195
:10523000B10568F0E8E0F8E084918F010F5F1F4F3F
:10524000882309F424CF0E946E86F801F5CF2896B2
:105250004EAD5FAD2897E1968EAD9FADE197841777
:1052600095070CF066C0EBEAF7E084918F010F5FC1
:105270001F4F882321F00E946E86F801F6CFB701F8
:10528000A60187E997E00E94979B8AE00E946E86BC
:10529000AB964CAD5DAD6EAD7FADAB9783E897E05F
:1052A0000E94979B8AE00E946E86AF964CAD5DADE2
:1052B0006EAD7FADAF978FE697E00E94979B8AE037
:1052C0000E946E86EC969FADEC97992309F426C355
:1052D000C092B20ED092B30EE092B40EF092B50E20
:1052E0002CEA35EC47E25EE3AB966CAD7DAD8EAD5E
:1052F0009FADAB970E9427DC6093AE0E7093AF0E0C
:105300008093B00E9093B10E2CEA35EC47E25EE349
:10531000AF966CAD7DAD8EAD9FADAF970E944BE368
:105320006093AA0E7093AB0E8093AC0E9093AD0E6B
:10533000F5C20E940432A8CDE7E7F6E284918F011E
:105340000F5F1F4F882321F00E946E86F801F6CF71
:10535000ECE1F9E084918F010F5F1F4F882309F47E
:10536000DDC20E946E86F801F5CF0E940571D6C29B
:1053700080E00E94C4A00E94C2A5D0C283E50E9422
:105380003385882349F00E94F184082F811106C0DB
:1053900080E00E94C29E02C000917A098091E31AC7
:1053A0009091E41AA091E51AB091E61A89839A8344
:1053B000AB83BC838091E71A9091E81AA091E91A17
:1053C000B091EA1A8D839E83AF83B8878091EB1AE0
:1053D0009091EC1AA091ED1AB091EE1A89879A87F4
:1053E000AB87BC8780910B0E90910C0E892B71F1CD
:1053F00083E40E943385811156C728C093014EA9CA
:105400005EAD682D7D2D8AA99AAD0E946FE220E0E5
:1054100030E040E05FE30E9427DCA20191010E949E
:105420006FE24B015C012DEB37E346E855EB0E9440
:1054300095E487FD88C72DEB37E346E855E3C501C2
:10544000B4010E94C2DB18160CF47DC786E50E94E9
:105450003385882341F080910B0E90910C0E892B9F
:1054600011F00E942F9E802F0E94C29E011103C046
:10547000E4E8FEE01CC080917A098111F9CFE7E7EA
:10548000F6E284918F010F5F1F4F882321F00E9465
:105490006E86F801F6CFE9E3F9E084918F010F5FA2
:1054A0001F4F882329F30E946E86F801F6CF84915E
:1054B0008F010F5F1F4F882321F00E946E86F80135
:1054C000F6CF80917A09811103C06AE573E002C0CA
:1054D00066E573E08BE299E00E9429558AE00E941C
:1054E0006E864CE050E063EE7AE1CE0101960E94B8
:1054F0008CE5892B09F412C20E94C2A50FC289E46F
:105500000E947A85882321F00E94D084062F01C052
:105510000FEF8AE40E947A85882321F00E94D084CC
:10552000162F01C01FEF8AE50E943385F82E8111E6
:1055300005C081E50E943385D82E01C0D12C07FD1E
:1055400002C017FF03C0E7E7F6E205C0F1101AC07A
:10555000D11018C0F8CF84918F010F5F1F4F88239F
:1055600021F00E946E86F801F6CFE7E7F9E084911A
:105570008F010F5F1F4F882309F4D0C10E946E86F0
:10558000F801F5CF033018F0E7E7F6E206C0133074
:10559000D8F716C00E946E86F80184918F010F5FC4
:1055A0001F4F8111F7CFE8E5F9E084918F010F5F7C
:1055B0001F4F882309F4B2C10E946E86F801F5CF0F
:1055C000E02E000FFF08012F110F110B0E94008524
:1055D000D701AA0FBB1FDD2081F0FD01EE0DFF1DDD
:1055E000E00FF11FEE0FFF1FEE0FFF1FE95EF14FFF
:1055F000208131814281538103C020E030E0A90144
:10560000EA0EFB1E0E0D1F1D000F111F000F111FB4
:10561000095E114F0E946FE2D8016D937D938D93C7
:105620009C9313977BC10E94766C78C10E946B6C2F
:1056300075C10E947D6572C183E50E943385882310
:1056400021F00E94F18491E089270E94807566C153
:1056500081E080930A0E0E94A86610920A0E8823A9
:1056600009F45CC1E4E8FEE084918F010F5F1F4FF5
:10567000882321F00E946E86F801F6CFE7E9F9E071
:1056800084918F010F5F1F4F882309F447C10E9447
:105690006E86F801F5CF0E94098940C18BE592E042
:1056A0000E94A4A181113AC185E50E943385882317
:1056B000D9F100915F1510E00E9400856B017C011B
:1056C00020E030E0A9010E9495E487FF04C0F7FACA
:1056D000F094F7F8F094000F111F000F111FF8015C
:1056E000E15FF14FC082D182E282F38200915F15C7
:1056F000B4E00B9F80011124015F114F20E030E0E6
:1057000048E453E4F80160817181828193810E94B1
:1057100095E418164CF480E090E0A8E4B3E4F801B6
:1057200080839183A283B3838CE40E943385882392
:1057300009F4F4C000915F1510E00E9400856B0130
:105740007C0120E030E0A9010E9495E487FF04C0BD
:10575000F7FAF094F7F8F094000F111F000F111FE3
:10576000F801ED5EF14FC082D182E282F3820091B6
:105770005F15F4E00F9F800111240D5E114F20E0B2
:1057800030E048E453E4D8016D917D918D919C9176
:105790000E9495E418160CF0C1C080E090E0A8E4E7
:1057A000B3E4F80180839183A283B383B7C08AE511
:1057B0000E947A85882309F438C00E9400856B0115
:1057C0007C0120E030E040EA51EC0E9495E487FD46
:1057D00013C020E030E040EA51E4C701B6010E9466
:1057E000C2DB18164CF0C092DF1AD092E01AE09299
:1057F000E11AF092E21A92C0E7E7F6E284918F0193
:105800000F5F1F4F81110DC0E4EBF9E084918F0110
:105810000F5F1F4F882309F481C00E946E86F80134
:10582000F5CF0E946E86F801E9CFE4E8FEE08491AE
:105830008F010F5F1F4F882321F00E946E86F801B1
:10584000F6CFE5EAF9E084918F010F5F1F4F8823BF
:1058500021F00E946E86F801F6CF4091DF1A509138
:10586000E01A6091E11A7091E21A82EA99E00E94CE
:10587000979B8AE00E946E8651C00E94BCCA4EC0AF
:10588000F090341B0E94057110917A0980E00E940B
:10589000C29EFF2029F1E4E8FEE084918F010F5FB2
:1058A0001F4F882321F00E946E86F801F6CF84E511
:1058B0000E946E866F2D70E080E090E04AE00E94CA
:1058C000788680E20E946E86E3EEF9E084918F0193
:1058D0000F5F1F4F882311F10E946E86F801F6CFEB
:1058E0001092400E812F0E94C29EE4E8FEE0849157
:1058F0008F010F5F1F4F882321F00E946E86F801F1
:10590000F6CF6091400E70E081ED99E00E94B49B6B
:105910008AE00E946E8602C00E94BCCA1092F314F4
:105920000E9407B757C50E94419C0E94F4B0F6CF71
:10593000B1100C94FC1E0C94F51E0E94D084AB0197
:10594000BC0140939C1A50939D1A60939E1A7093C9
:105950009F1A8CEC99E10E94AC45E0CF0E94008533
:105960000E94B3E370937E0960937D0980E00E94FA
:1059700085BB8091790490917A04846090937A0435
:10598000809379040E94008520E030E04AEA52E4E6
:105990000E94C2DB18161CF00E94985502C00E949B
:1059A00051550E9497D481E080931B021AAA1BAA2A
:1059B0001CAA1DAA6A961CAE1DAE1EAE1FAE6A972B
:1059C0001EA62B961FAE2B975CE32F965FAF2F97EB
:1059D0008CE16B968FAF6B9796E463969FAF63975E
:1059E000C12CD12C00E8E02E8FEBF82E812C912CCD
:1059F000540160917D0970917E09072E000C880B7F
:105A0000990B0E94C8DB162F072F782E692E262FA0
:105A1000372F482F592FB601C7010E94C2DB8823B8
:105A2000E1F020915E0E30915F0E4091600E50913A
:105A3000610E612F702F872D962D0E94C2DB881F6B
:105A40008827881F8EA72796AFAD2797AA2349F0EE
:105A5000882339F080911B0261CF1C2D0D2D7E2CE7
:105A60006F2C0E949C7C6B017C01DC01CB016A964F
:105A70002CAD3DAD4EAD5FAD6A97821B930BA40B71
:105A8000B50BB7FD3DC0D701C60188519C4FAF4F44
:105A9000BF4F6A968CAF9DAFAEAFBFAF6A970E9403
:105AA00036B9ECE7F5E084912F019FEF491A590AC6
:105AB000882321F00E946E86F201F5CF81149104B3
:105AC000A104B104B9F0D501C4018856954CAF4F7B
:105AD000BF4FBC01CD016C197D098E099F0928EECD
